:1000000033C0000041C000003FC000003DC0000000
:100010003BC0000039C0000037C0000035C0000000
:1000200033C0000031C000002FC000002DC0000010
:100030002BC0000029C0000027C0000025C0000020
:1000400023C0000021C000001FC000001DC0000030
:100050001BC0000019C0000017C0000015C0000040
:1000600013C0000011C0000011241FBECFEFD8E064
:10007000DEBFCDBF11E0A0E0B1E001C01D92A13014
:10008000B107E1F75CD062C0BBCFDF93CF93CDB7B0
:10009000DEB71092000184EC90E027E6FC0120839B
:1000A00085EC90E0FC01108282EC90E026E0FC01FF
:1000B000208381EC90E028E1FC012083CF91DF9147
:1000C0000895DF93CF93CDB7DEB780EC90E0FC01CD
:1000D0008081882F90E080789070CF91DF91089593
:1000E000DF93CF93CDB7DEB70000EBDF0097E9F3E6
:1000F00086EC90E0FC01808180930001CF91DF913C
:100100000895DF93CF93CDB7DEB786EC90E02091D2
:100110000001FC012083CF91DF910895DF93CF93FD
:10012000CDB7DEB7CEDF009739F0DADF809100017E
:100130008F5F80930001E5DFCF91DF910895DF931A
:10014000CF93CDB7DEB7A1DFE9DFFECFF894FFCFC5
:00000001FF
