:100000000C9434000C9494000C94AC010C945100AA
:100010000C9451000C9451000C9451000C9451001C
:100020000C9451000C9451000C9451000C9451000C
:100030000C9451000C9451000C9451000C945100FC
:100040000C946E030C9451000C9451000C945100CC
:100050000C9451000C9451000C9451000C945100DC
:100060000C9451000C94510011241FBECFEFD8E026
:10007000DEBFCDBF11E0A0E0B1E0E8E8F8E002C0EB
:1000800005900D92A230B107D9F711E0A2E0B1E0DE
:1000900001C01D92AC31B107E1F70E9407030C9437
:1000A00042040C940000DF93CF93CDB7DEB70E94DB
:1000B00011038DE390E023E0FC01208389E690E0CA
:1000C0002FE0FC01208384E290E023E0FC01208308
:1000D000CF91DF910895DF93CF9300D000D0CDB7BB
:1000E000DEB78FEF9FEFA0E0B0E089839A83AB8308
:1000F000BC83000089819A81AB81BC8121E000979B
:10010000A105B10509F420E00197A109B10989838E
:100110009A83AB83BC83222369F70F900F900F90D3
:100120000F90CF91DF9108951F920F920FB60F920B
:1001300011242F923F924F925F926F927F928F92F3
:100140009F92AF92BF92CF92DF92EF92FF920F9366
:100150001F932F933F934F935F936F937F938F934F
:100160009F93AF93BF93EF93FF93DF93CF93CDB75D
:10017000DEB72897DEBFCDBF0E943703222E332E75
:10018000442E552E662E772E882E992E20910C0106
:1001900030910D0140910E0150910F0160911001BD
:1001A000709111018091120190911301E2E3E983B2
:1001B0001A821B821C821D821E821F821886A980C1
:1001C000A20EE1E0A21608F0E0E0BA80B30EA1E0D2
:1001D000B31608F0A0E0FE2FFB0DE1E0FB1508F0E0
:1001E000E0E0AE2BBF2ECB80C40EB1E0C41608F009
:1001F000B0E0FA2FFC0DE1E0FC1508F0E0E0BE2BCA
:10020000CF2EDC80D50EA1E0D51608F0A0E0FB2FA4
:10021000FD0DE1E0FD1508F0E0E0AE2BDF2EED80F6
:10022000E60EB1E0E61608F0B0E0FA2FFE0DE1E0D0
:10023000FE1508F0E0E0BE2BEF2EFE80F70EA1E0E9
:10024000F71608F0A0E0FB2FFF0DE1E0FF1508F026
:10025000E0E0AE2BFF2E0F81080FF1E0081708F049
:10026000F0E0A00FE1E0A01708F0E0E0FE2B0A2F7D
:100270001885190F8F2F810F182F2A2D3B2D4C2DEC
:100280005D2D6E2D7F2D802F912F991608F43EC085
:100290009915D1F48816D0F18815B1F47716B0F11C
:1002A000771591F4661690F1661571F4551670F194
:1002B000551551F4441650F1441531F4331630F10C
:1002C000331511F4221610F19091020181E0992367
:1002D00009F080E0809302010E943703A22EB32E22
:1002E000C42ED52EE62EF72E082F192FA0920C0122
:1002F000B0920D01C0920E01D0920F01E092100158
:10030000F092110100931201109313012896DEBFA1
:10031000CDBFCF91DF91FF91EF91BF91AF919F91B1
:100320008F917F916F915F914F913F912F911F918D
:100330000F91FF90EF90DF90CF90BF90AF909F9084
:100340008F907F906F905F904F903F902F900F9085
:100350000FBE0F901F9018951F920F920FB60F921D
:1003600011242F923F924F925F926F927F928F92C1
:100370009F92AF92BF92CF92DF92EF92FF920F9334
:100380001F932F933F934F935F936F937F938F931D
:100390009F93AF93BF93EF93FF93DF93CF93CDB72B
:1003A000DEB72897DEBFCDBF0E943703222E332E43
:1003B000442E552E662E772E882E992E20910401DC
:1003C00030910501409106015091070160910801AB
:1003D0007091090180910A0190910B01E2E3E98398
:1003E0001A821B821C821D821E821F821886A9808F
:1003F000A20EE1E0A21608F0E0E0BA80B30EA1E0A0
:10040000B31608F0A0E0FE2FFB0DE1E0FB1508F0AD
:10041000E0E0AE2BBF2ECB80C40EB1E0C41608F0D6
:10042000B0E0FA2FFC0DE1E0FC1508F0E0E0BE2B97
:10043000CF2EDC80D50EA1E0D51608F0A0E0FB2F72
:10044000FD0DE1E0FD1508F0E0E0AE2BDF2EED80C4
:10045000E60EB1E0E61608F0B0E0FA2FFE0DE1E09E
:10046000FE1508F0E0E0BE2BEF2EFE80F70EA1E0B7
:10047000F71608F0A0E0FB2FFF0DE1E0FF1508F0F4
:10048000E0E0AE2BFF2E0F81080FF1E0081708F017
:10049000F0E0A00FE1E0A01708F0E0E0FE2B0A2F4B
:1004A0001885190F8F2F810F182F2A2D3B2D4C2DBA
:1004B0005D2D6E2D7F2D802F912F991608F43EC053
:1004C0009915D1F48816D0F18815B1F47716B0F1EA
:1004D000771591F4661690F1661571F4551670F162
:1004E000551551F4441650F1441531F4331630F1DA
:1004F000331511F4221610F19091030181E0992334
:1005000009F080E0809303010E943703A22EB32EEE
:10051000C42ED52EE62EF72E082F192FA0920401F7
:10052000B0920501C0920601D0920701E092080145
:10053000F092090100930A0110930B012896DEBF87
:10054000CDBFCF91DF91FF91EF91BF91AF919F917F
:100550008F917F916F915F914F913F912F911F915B
:100560000F91FF90EF90DF90CF90BF90AF909F9052
:100570008F907F906F905F904F903F902F900F9053
:100580000FBE0F901F901895DF93CF93CDB7DEB7B6
:1005900080910201882361F085E290E025E230E05D
:1005A000F901308120910001232BFC0120830DC033
:1005B00085E290E025E230E0F9012081322F2091A0
:1005C000000120952323FC012083809103018823CF
:1005D00061F085E290E025E230E0F9013081209180
:1005E0000101232BFC0120830DC085E290E025E270
:1005F00030E0F9012081322F209101012095232341
:10060000FC0120830E946B00CF91DF910895DF935E
:10061000CF93CDB7DEB70E94530078940E94C402F6
:10062000FDCFDF93CF93CDB7DEB7109214011092B8
:1006300015011092160110921701109218011092D4
:10064000190110921A0110921B0185E490E025E037
:10065000FC01208386E490E020EFFC0120838EE6FD
:1006600090E021E0FC012083CF91DF910895AF92CB
:10067000BF92CF92DF92EF92FF920F931F93DF937F
:10068000CF93CDB7DEB72091140130911501409181
:100690001601509117016091180170911901809114
:1006A0001A0190911B01A22EB32EC42ED52EE62E38
:1006B000F72E082F192F2A2D3B2D4C2D5D2D6E2D39
:1006C0007F2D802F912FCF91DF911F910F91FF9060
:1006D000EF90DF90CF90BF90AF9008951F920F9250
:1006E0000FB60F9211242F923F924F925F926F920A
:1006F0007F928F929F92AF92BF92CF92DF92EF92B2
:10070000FF920F931F932F933F934F935F936F939A
:100710007F938F939F93AF93EF93FF93DF93CF9349
:10072000CDB7DEB786E490E020EFFC012083A090F7
:100730001401B0901501C0901601D0901701E090FF
:100740001801F090190100911A0110911B01222447
:10075000239433244424552466247724882499241C
:100760002A2D220DE1E02A1508F0E0E03B2D330DA3
:10077000F1E03B1508F0F0E0E30FA1E0E31708F02B
:10078000A0E0FA2B3E2F4C2D440DE1E04C1508F073
:10079000E0E0F40FA1E0F41708F0A0E0EA2B4F2FFF
:1007A0005D2D550DF1E05D1508F0F0E0E50FA1E0DD
:1007B000E51708F0A0E0FA2B5E2F6E2D660DE1E044
:1007C0006E1508F0E0E0F60FA1E0F61708F0A0E0E3
:1007D000EA2B6F2F7F2D770DF1E07F1508F0F0E009
:1007E000E70FA1E0E71708F0A0E0FA2B7E2F802F9B
:1007F000880DE1E0801708F0E0E0F80FA1E0F817BD
:1008000008F0A0E0EA2B8F2F912F990DE90F9E2F72
:10081000A22EB32EC42ED52EE62EF72E082F192F7A
:10082000A0921401B0921501C0921601D092170146
:10083000E0921801F092190100931A0110931B0124
:10084000CF91DF91FF91EF91AF919F918F917F9128
:100850006F915F914F913F912F911F910F91FF9059
:10086000EF90DF90CF90BF90AF909F908F907F9050
:100870006F905F904F903F902F900F900FBE0F9012
:080880001F901895F894FFCFBA
:0208880002016B
:00000001FF
