:100000000C9434000C9451000C9451000C94510049
:100010000C9451000C9451000C9451000C9451001C
:100020000C9451000C9451000C9451000C9451000C
:100030000C9451000C9451000C9451000C945100FC
:100040000C9451000C9451000C9451000C945100EC
:100050000C9451000C9451000C9451000C945100DC
:100060000C9451000C94510011241FBECFEFD8E026
:10007000DEBFCDBF11E0A0E0B1E0E6E7F2E002C0F4
:1000800005900D92A031B107D9F711E0A0E1B1E0E0
:1000900001C01D92A431B107E1F70E9430010C9418
:1000A00039010C940000DF93CF93CDB7DEB7809178
:1000B0000801909109012091080130910901F9018D
:1000C0002081276DFC012083809102019091030122
:1000D0002091020130910301F90120812360FC018C
:1000E0002083CF91DF910895DF93CF9300D000D08C
:1000F000CDB7DEB78FEF9FEFA0E0B0E089839A83A2
:10010000AB83BC83000089819A81AB81BC8121E0F3
:100110000097A105B10509F420E00197A109B109F3
:1001200089839A83AB83BC83222369F70F900F9056
:100130000F900F90CF91DF910895DF93CF93CDB7BC
:10014000DEB79091130181E0992309F080E080935C
:10015000130180911301882381F080910401909113
:1001600005012091040130910501F90130812091B0
:100170000C01232BFC01208311C08091040190917C
:1001800005012091040130910501F9012081322FF0
:1001900020910C0120952323FC012083CF91DF9136
:1001A0000895DF93CF93CDB7DEB79091120181E030
:1001B000992309F080E08093120180911201882335
:1001C00081F080910401909105012091040130910A
:1001D0000501F901308120910D01232BFC012083C1
:1001E00011C080910401909105012091040130918A
:1001F0000501F9012081322F20910D012095232343
:10020000FC012083CF91DF910895DF93CF93CDB789
:10021000DEB78091060190910701FC0190818091E9
:100220000E018923809310018091060190910701AE
:10023000FC01908180910F018923809311018091AD
:100240001001882311F00E949D00809111018823E4
:1002500011F00E94D1000E947400CF91DF910895A7
:10026000DF93CF93CDB7DEB70E9453000E94050104
:06027000FDCFF894FFCF62
:1002760023002400250029002A002B000201201853
:00000001FF
