:1000000033C000008CC00000A6C0000048C0000043
:1000100046C0000044C0000042C0000040C00000D4
:100020003EC000003CC000003AC0000038C00000E4
:1000300036C0000034C0000032C0000030C00000F4
:100040002EC000002CC000002AC0000028C0000004
:1000500026C0000024C0000022C0000020C0000014
:100060001EC000001CC0000011241FBECFEFD8E04E
:10007000DEBFCDBF11E0A0E0B1E0E6E2F2E002C0F9
:1000800005900D92A230B107D9F711E0A2E0B1E0DE
:1000900001C01D92A430B107E1F7BBD0C2C0B0CF00
:1000A000DF93CF93CDB7DEB78DE390E023E0FC0183
:1000B000208389E690E02FE0FC01208384E290E039
:1000C00023E0FC012083CF91DF910895DF93CF934C
:1000D00000D000D0CDB7DEB78FEF9FEFA0E0B0E04B
:1000E00089839A83AB83BC83000089819A81AB8129
:1000F000BC8121E00097A105B10509F420E001973A
:10010000A109B10989839A83AB83BC83222369F750
:100110000F900F900F900F90CF91DF9108951F9245
:100120000F920FB60F9211248F939F93DF93CF936B
:10013000CDB7DEB79091020181E0992309F080E00C
:1001400080930201CF91DF919F918F910F900FBE0D
:100150000F901F9018951F920F920FB60F921124B7
:100160008F939F93DF93CF93CDB7DEB79091030129
:1001700081E0992309F080E080930301CF91DF9122
:100180009F918F910F900FBE0F901F901895DF9346
:10019000CF93CDB7DEB780910201882361F085E26D
:1001A00090E025E230E0F901308120910001232B1D
:1001B000FC0120830DC085E290E025E230E0F901EA
:1001C0002081322F2091000120952323FC012083E0
:1001D00080910301882361F085E290E025E230E020
:1001E000F901308120910101232BFC0120830DC0F6
:1001F00085E290E025E230E0F9012081322F209164
:10020000010120952323FC01208360DFCF91DF9142
:100210000895DF93CF93CDB7DEB742DF7894B7DF91
:06022000FECFF894FFCFB1
:020226000201D3
:00000001FF
