:1000000033C000004CC000004AC0000048C00000DF
:1000100046C0000044C0000042C0000040C00000D4
:100020003EC000003CC000003AC0000038C00000E4
:1000300036C0000034C0000032C0000030C00000F4
:100040002EC000002CC000002AC0000028C0000004
:1000500026C0000024C0000022C0000020C0000014
:100060001EC000001CC0000011241FBECFEFD8E04E
:10007000DEBFCDBF11E0A0E0B1E0E8E4F1E002C0F6
:1000800005900D92A830B107D9F711E0A8E0B1E0D2
:1000900001C01D92A930B107E1F74DD053C0B0CFD8
:1000A000DF93CF93CDB7DEB780910001909101012E
:1000B0002091000130910101F90120812460FC01AF
:1000C0002083CF91DF910895DF93CF93CDB7DEB733
:1000D0008091040190910501FC01908180910701BC
:1000E00089238093080180910801882381F0809101
:1000F0000201909103012091020130910301F90165
:10010000308120910601232BFC01208311C08091B6
:100110000201909103012091020130910301F90144
:100120002081322F2091060120952323FC0120837A
:10013000CF91DF910895DF93CF93CDB7DEB7B0DFD6
:08014000C3DFFECFF894FFCFEE
:080148002A002B002900040825
:00000001FF
